:020000040800F2
:1000000000C001203D0600080106000803060008A4
:1000100005060008070600080906000800000000A1
:100020000000000000000000000000000B060008B7
:100030000D060008000000000F0600081106000869
:100040008D0600088D0600088D0600088D06000844
:100050008D0600088D0600088D0600088D06000834
:100060008D0600088D0600088D0600088D06000824
:100070008D0600088D0600088D0600088D06000814
:100080008D0600088D0600088D0600088D06000804
:10009000190600088D0600088D0600088D06000868
:1000A0008D0600088D0600088D0600088D060008E4
:1000B0008D0600088D0600088D0600088D060008D4
:1000C0008D0600088D0600088D0600088D060008C4
:1000D0008D0600088D060008290600088D06000818
:1000E0008D0600088D0600088D0600088D060008A4
:1000F0008D0600088D0600088D0600088D06000894
:10010000000000008D060008000000008D060008B9
:100110008D0600088D0600088D0600088D06000873
:100120008D0600088D0600088D0600088D06000863
:100130008D06000800000000000000008D06000889
:100140008D0600088D060008000000000000000079
:10015000000000000000000000000000000000009F
:100160000000000000000000000000008D060008F4
:100170008D0600088D0600088D0600088D06000813
:100180008D0600088D060008000000000000000039
:10019000000000008D0600088D0600088D0600088E
:1001A00000000000000000008D0600088D06000819
:1001B0008D0600088D0600088D0600088D060008D3
:1001C0008D0600088D0600088D0600088D060008C3
:0801D0008D0600088D060008F1
:1001D80053B94AB9002908BF00281CBF4FF0FF31A6
:1001E8004FF0FF3000F00CB8ADF1080C6DE904CE0B
:1001F80005F0EEFCDDF804E0DDE9022304B0704709
:10020800704700BF0348044B834202D0034B03B13D
:10021800184770478801002088010020000000006E
:100228000548064B1B1AD90F01EBA301491002D050
:10023800034B03B11847704788010020880100204C
:100248000000000010B5064C237843B9FFF7DAFF29
:10025800044B13B10448AFF300800123237010BD91
:1002680088010020000000005860000808B5054B10
:100278001BB105490548AFF30080BDE80840FFF70A
:10028800CFBF00BF000000008C01002058600008AC
:1002980010B500F03DFA044600F054F8064B1B6810
:1002A800E31AB3F5FA6F00D810BD2021034800F017
:1002B8001AFC014B1C60F7E7A40100200004004869
:1002C80008B500F001F808BD08B5034B1860012215
:1002D800024903F0F9FA08BDA8010020AC0100208A
:1002E80038B50446044D287800F014F80122294650
:1002F800204603F0E9FA38BDAC01002008B50A46EB
:100308004FF0FF3301460248006803F03DF908BD8D
:10031800A801002072B60A4AB2F800349BB2D05441
:10032800B2F800349BB201335942C3F30903C1F355
:10033800090158BF4B429BB2A2F8003462B670471D
:10034800B001002030B5A1B072B61B4BB3F8002441
:1003580092B2B3F802349BB29A4207D3D41AA4B229
:10036800802C28BF8024E5B2002215E0C3F5806404
:10037800A4B2F5E71049C85C02F18001694401F8AC
:10038800800C01335942C3F30903C1F3090158BF73
:100398004B429BB20132D2B2AA42EBD3064AA2F830
:1003A800023462B62DB1E1B2684605F0FBF90028C7
:1003B800F9D121B030BD00BFB001002008B5FFF76A
:1003C8009DFF08BD30B589B00024039404940594BA
:1003D80006940794124BDA6C42F00102DA64DA6C84
:1003E80002F001020192019ADA6C42F00202DA6428
:1003F800DB6C03F002030293029B0A4D2246202184
:10040800284600F06BFB20230393012304930594F3
:10041800069403A9284600F073FA09B030BD00BF5E
:10042800001002400004004872B6FEE708B51548FF
:10043800154B03604FF4E133436000238360C360CE
:1004480003610C2242618361C36103624362836278
:1004580003F068F970B900210A4803F0A3FA58B903
:100468000021084803F0C3FA40B9064803F07BFAB4
:1004780030B908BDFFF7D8FFFFF7D6FFFFF7D4FF65
:10048800FFF7D2FFB40500200044004000B595B046
:100498003822002106A805F0F9FC002301930293F5
:1004A8000393049305934FF4007001F021FB22237A
:1004B80006934FF48073099340230A9301220C9208
:1004C80002230D930E930F92082210921193129308
:1004D800139306A801F0C6FB78B90F2301930323F1
:1004E80002930023039304930593022101A801F0CA
:1004F8006FFE20B915B05DF804FBFFF795FFFFF715
:1005080093FF000008B500F0E7F8FFF7BFFFFFF71B
:1005180059FFFFF78BFF05F0EFF80348FFF7D0FE10
:10052800FFF7B6FEFCE700BFB405002000B583B0B6
:100538000B4B1A6E42F001021A661A6E02F00102A3
:100548000092009A9A6D42F080529A659B6D03F072
:1005580080530193019B01F051FB03B05DF804FB4C
:100568000010024010B59CB0044600211791189164
:1005780019911A911B91502203A805F087FC226853
:100588001B4B9A4201D01CB010BD0223039303A851
:1005980001F044FF48BB174B9A6D42F400329A654C
:1005A8009A6D02F400320192019ADA6C42F001026B
:1005B800DA64DB6C03F001030293029B0C231793AC
:1005C80002231893002419941A9407231B9317A93C
:1005D8004FF0904000F094F922462146262000F082
:1005E800F1F8262000F0FEF8CDE7FFF71DFFD2E76F
:1005F8000044004000100240FEE7FEE7FEE7FEE789
:10060800FEE770477047704708B500F075F808BDF9
:1006180008B5024801F024F808BD00BF401D0020BD
:1006280008B5024802F0F2F808BD00BFB405002082
:10063800704700000D488546FFF7FAFF0C480D4942
:100648000D4A002302E0D458C4500433C4188C4225
:10065800F9D30A4A0A4C002301E013600432A2428B
:10066800FBD305F065FCFFF74DFFFEE700C0012056
:1006780000000020880100200C610008880100208B
:10068800B4210020FEE70000104B1B680BB90120C5
:10069800704710B504464FF47A70B0FBF3F30C4A78
:1006A8001068B0FBF3F000F0A1F868B90F2C01D97D
:1006B80001200AE0002221464FF0FF3000F082F8C6
:1006C800044B1C60002000E0012010BD0400002045
:1006D800000000200800002010B5032000F060F89A
:1006E8000F20FFF7D1FF10B10124204610BD0446AA
:1006F800FFF71CFFF9E70000034A1368034909687C
:100708000B441360704700BF480600200400002017
:10071800014B1868704700BF48060020002807DB17
:1007280000F01F02400901239340024A42F820309A
:10073800704700BF00E100E0002808DB0901C9B2EA
:1007480000F1604000F5614080F80013704700F048
:100758000F000901C9B2014B1954704714ED00E0AC
:1007680000B500F00700C0F1070CBCF1040F28BF6A
:100778004FF0040C031D062B0FD9C31E4FF0FF3E8C
:100788000EFA0CF021EA000199400EFA03FE22EA63
:100798000E0241EA02005DF804FB0023EEE70000C8
:1007A800074AD36823F4E0631B041B0C000200F41F
:1007B800E060034343F0BF6343F40033D360704702
:1007C80000ED00E010B50446054BD868C0F30220E0
:1007D800FFF7C6FF01462046FFF7AEFF10BD00BF7A
:1007E80000ED00E008B5FFF799FF08BD0138B0F14A
:1007F800807F0BD24FF0E0235861054AF02182F840
:1008080023100020986107221A6170470120704761
:1008180000ED00E0034690F82520D2B2022A09D064
:100828000422C2630120012283F82520002283F8D4
:100838002420704701680A6822F00E020A60816C61
:100848000A6822F480720A6001680A6822F00102CC
:100858000A60426C02F01F01006C01228A4042606B
:10086800DA6C196D51605A6D42B1116821F48071CA
:1008780011609A6DD96D51600020D4E70020D2E74D
:1008880008B590F82530DBB2022B09D00423C363E6
:10089800012380F82530002280F82420184608BD5E
:1008A8000268136823F00E0313600268136823F0CC
:1008B80001031360826C136823F480731360436C24
:1008C80003F01F02016C012393404B60C36C026D5F
:1008D8005A60436D33B11A6822F480721A60836DCE
:1008E800C26D5A60012380F82530002380F8243037
:1008F800836B13B198470020D1E70020CFE70000B1
:1009080070B582B0002365E085685E000324B440BA
:1009180025EA0405CC68B4402C438460456825EA80
:100928000C054C68C4F300149C402C43446062E0FE
:10093800DD08083550F8254003F0070C4FEA8C0C09
:100948004FF00F0E0EFA0CFE24EA0E0E0C6904FA94
:100958000CF444EA0E0440F8254063E0052400E066
:10096800002404FA0EF42C430CF1020C574D45F800
:100978002C40574CA568D44325EA0206D1F804C098
:100988001CF4801F01D042EA0506514DAE60ED68A7
:1009980004EA0506D1F804C01CF4001F01D042EA9D
:1009A80005064B4DEE606D6804EA0506D1F804C0F3
:1009B8001CF4003F01D042EA0506454D6E602D68E3
:1009C8002C404E6816F4803F01D042EA0504404AA4
:1009D800146001330A6832FA03F474D04FF0010C42
:1009E8000CFA03FC1CEA0202F3D04C6804F003047E
:1009F800013C012C88D94C6804F00304032C0CD06A
:100A0800C4685D004FF0030C0CFA05FC24EA0C0CDA
:100A18008C68AC4044EA0C04C4604C6804F00304DD
:100A2800022C85D004684FEA430E4FF0030C0CFAF1
:100A38000EFC24EA0C0C4C6804F0030404FA0EF4CF
:100A480044EA0C0404604C6814F4403FC1D0214CC3
:100A5800256E45F001052566246E04F00104019415
:100A6800019C4FEA930C0CF10205184C54F82550E0
:100A780003F0030E4FEA8E0E0F2404FA0EF425EA53
:100A88000405B0F1904F3FF46BAF134CA04212D065
:100A980004F58064A04210D004F58064A0420ED012
:100AA80004F58064A0420CD004F58064A0423FF4B1
:100AB80055AF062455E7012453E7022451E70324E0
:100AC8004FE704244DE702B070BD00BF00000140AD
:100AD8000004014000100240000400480AB181618E
:100AE800704781627047436901EA030221EA030102
:100AF80041EA02418161704738B512F4804F43D012
:100B08000468B4F8503091F800C04FEACC0E1EFAD1
:100B180083F32344B3F80244C4F309048B69A34262
:100B280028D31B1B8B618B697BB9056835F82C3082
:100B38009BB223F4804323F0700383F4005343F4FF
:100B4800004343F0800325F82C3012F0400F0ED0FC
:100B580002680D7832F825309BB223F4E04323F085
:100B6800700343F4004343F0C00322F8253024B94E
:100B7800204638BD00238B61D5E723460A89496999
:100B8800006803F0D1FEF3E70468B4F8503091F838
:100B980000C04FEACC0E1EFA83F32344B3F8064490
:100BA800C4F309048B69A3422FD31B1B8B618B6988
:100BB8007BB9056835F82C309BB223F4804323F0C9
:100BC800700383F4005343F4004343F0800325F893
:100BD8002C3012F0400F0FD1026891F800C032F8A3
:100BE8002C309BB223F4E04323F0700343F400431A
:100BF80043F0C00322F82C30002CB9D023464A8990
:100C08004969006803F090FEB2E700238B61CEE7E4
:100C1800002856D010B5044690F891323BB1032312
:100C280084F89132206802F010FF002315E080F864
:100C3800903204F075FEF2E703EB830204EBC20284
:100C48000121517413740021D1741162516201336E
:100C580003EB8302D200A150DBB220799842EBD893
:100C6800002316E003EB830204EBC202002182F8A2
:100C7800511182F8503182F85311C2F86011C2F84C
:100C8800641103EB830204EBC202C2F8681101335A
:100C9800DBB29842E6D8234653F8040B93E80600E3
:100CA80002F0DDFE00232373012384F89132A37A36
:100CB800012B01D0002010BD204600F002FF0020CB
:100CC800F9E70120704790F89032012B0ED010B54B
:100CD8000446012380F89032006802F0ADFE2068D7
:100CE80003F01AFA002084F8900210BD0220704721
:100CF80070B505460C46164612F0400F00F00A8102
:100D08000268B2F850300978C80010FA83F3134427
:100D1800B3F80224C2F30902A36993424DD99B1A7E
:100D2800A361A369002B64D16378002B48D12A689A
:100D3800B2F8503012FA83F30344B3F80224C2F332
:100D48000902A3F80224B3F802246FEA42426FEAC8
:100D5800524292B2A3F802242A686378002B3BD14E
:100D6800B2F8503012FA83F3227803EBC203B3F8D7
:100D78000624C2F30902A3F80624B3F806246FEA8E
:100D880042426FEA524292B2A3F8062421782846DA
:100D980004F00AFE16F4804F40D02A68217832F811
:100DA80021309BB223F4E04323F0700343F4404323
:100DB80043F0800322F8213030E00023A361B0E73C
:100DC800012BC9D12A68B2F8503012FA83F30344D0
:100DD8000022A3F80224BFE7012BD7D1B2F8503084
:100DE80012FA83F3227803EBC2030022A3F8062445
:100DF800CCE716F4804F0DD0286830F821309BB22C
:100E080023F4E04323F0700343F4404343F08003AA
:100E180020F8213094F82430012B12D02A68217848
:100E280032F821309BB223F4E04323F0400383F0EF
:100E3800300343F4004343F0800322F821300020BC
:100E480070BD636913446361E3691344E361216A14
:100E58002369994224D3C91A21626278002A44D1AD
:100E68002968B1F8502011FA82F2217802EBC10208
:100E7800B2F80214C1F30901A2F802143E2B1BD9DF
:100E8800580913F01F0F00D10138B2F8021489B2C3
:100E9800800280B2014341F40041A2F8021426E026
:100EA80021B9002384F824301346D6E7002384F8B8
:100EB800243023620B46D0E74BB9B2F802146FEA2C
:100EC80041416FEA514189B2A2F802140FE0590872
:100ED80013F0010F00D00131B2F8020480B2890288
:100EE80089B20143A2F8021401E0012A06D09BB29C
:100EF80022896169286803F01EF98FE72968B1F82B
:100F0800502011FA82F2217802EBC10299B2A2F8BC
:100F18000214ECE70268B2F850300978C80010FAF9
:100F280083F31344B3F80624C2F30902A369934276
:100F38004ED39B1AA361A369002B65D16378002B5C
:100F480049D12A68B2F8503012FA83F30344B3F84F
:100F58000224C2F30902A3F80224B3F802246FEAB8
:100F680042426FEA524292B2A3F802242A68637896
:100F7800002B3CD1B2F8503012FA83F3227803EBFD
:100F8800C203B3F80624C2F30902A3F80624B3F88F
:100F980006246FEA42426FEA524292B2A3F806244C
:100FA8002178284604F000FD16F4804F7FF436AF10
:100FB8002A68217832F821309BB223F4E04323F0E9
:100FC800700343F4404343F0800322F8213025E7BF
:100FD8000023A361AFE7012BC8D12A68B2F85030CB
:100FE80012FA83F303440022A3F80224BEE7012B7C
:100FF800D6D1B2F8503012FA83F3227803EBC20349
:101008000022A3F80624CBE716F4804F0DD12868F8
:1010180030F821309BB223F4E04323F0700343F40B
:10102800404343F0800320F8213094F82430012B0A
:101038007FF4F4AE636913446361E3691344E361C5
:10104800216A2369994224D3C91A216229686278DE
:10105800002A43D1B1F8502011FA82F2217802EB2C
:10106800C102B2F80614C1F30901A2F806143E2B16
:101078001BD9580913F01F0F00D10138B2F8061414
:1010880089B2800280B2014341F40041A2F80614FB
:1010980026E021B9002384F824301346D6E700233C
:1010A800236284F824300B46D0E74BB9B2F8061413
:1010B8006FEA41416FEA514189B2A2F806140FE084
:1010C800590813F0010F00D00131B2F8060480B2BC
:1010D800890289B20143A2F8061401E0012A06D068
:1010E8009BB262896169286803F025F896E6B1F831
:1010F800502011FA82F2217802EBC10299B2A2F8CB
:101108000614EDE72DE9F04105462868B0F84430AB
:1011180013F4004F00F08E82B0F84440A3B214F0EC
:101128000F0440F0D88013F0100F69D003889AB2EA
:1011380013F4006F40F0958012F4004FE5D0038857
:1011480023F070031B051B0D43F080030380286800
:10115800B0F8503095F85021D20012FA83F30344C6
:10116800B3F80634C3F30903C5F86C318BB1D5F86D
:10117800641171B1B5F8562103F0D6FBD5F8643186
:10118800D5F86C211344C5F864310021284604F0D1
:10119800FFFB2A68138899B213F4006FB5D101F4E4
:1011A8004051B1F5405FB0D0B2F8503012FA83F335
:1011B800B3F80624C2F30902A3F80624D5F860217F
:1011C8003E2A6FD9510912F01F0F00D10139B3F827
:1011D800062492B2890289B20A4342F40042A3F873
:1011E80006242A6813889BB223F4804323F07003F3
:1011F80083F4405343F4004343F08003138084E7AF
:1012080003889BB223F4E14323F070036FEA43435E
:101218006FEA53439BB203802968B1F850302A7CA7
:10122800D20012FA83F30B44B3F80234C3F3090370
:10123800EB626A6A1A446A620021284604F0B4FB29
:101248002B7B002B3FF461AFAB6A002B7FF45DAFC3
:101258002B7B2A6843F08003A2F84C3000232B73C1
:1012680053E7B0F8503095F85021D20012FA83F3C2
:101278000344B3F80634C3F30903C5F86C31B5F871
:10128800562105F5267103F04FFB2A68138823F0D1
:1012980070031B051B0D43F080031380284604F0E0
:1012A8006FFB32E74AB9B3F806246FEA42426FEAA5
:1012B800524292B2A3F8062493E7510812F0010FA4
:1012C80000D00131B3F8062490B28A0292B20243E8
:1012D800A3F8062485E730F824309EB213F4004FB3
:1012E8004ED116F0800F3FF410AF04EB8401C90013
:1012F800103129442A6832F824309BB223F4E143A0
:1013080023F070036FEA43436FEA53439BB222F81A
:10131800243004EB840305EBC303DB7C012B00F0D2
:10132800E98016F4807F40F080812868B0F850305A
:1013380004EB840205EBC202167CF20012FA83F376
:101348000344B3F80234C3F30903621C02EB8202BC
:1013580055F832209A4240F24B81671C07EB870709
:10136800D21A45F83720621C02EB820255F8322067
:10137800002A40F044813146284604F015FBC4E6B3
:1013880030F8243023F070031B051B0D43F0800355
:1013980020F8243004EB8401C90001F5A87105EB9D
:1013A800010804EB840305EBC30393F85C31002BBD
:1013B80040D12868B0F8503004EB840205EBC20233
:1013C80092F85021D20012FA83F30344B3F806745A
:1013D800C7F3090717BB04EB840305EBC303D3F872
:1013E8006C213A44C3F86C21D3F864213A44C3F819
:1013F8006421D3F868313BB104EB840305EBC303E4
:10140800D3F860319F4270D204EB840305EBC30329
:1014180093F85011284604F0BBFA62E704EB840104
:1014280005EBC1013B46B1F85621D1F8641103F030
:101438007BFAD0E704EB840305EBC30393F853313D
:10144800022B33D0296804EB840205EBC20292F820
:10145800500131F820309BB223F4E04323F07003AD
:1014680043F4004343F0C00321F82030286892F881
:10147800503130F8232012F4804F1ED0B0F850209D
:10148800DB0013FA82F30344B3F80274C7F30907C5
:10149800002FA0D004EB840105EBC1013B46B1F855
:1014A8005821D1F8641103F03FFA94E732464146D7
:1014B8002846FFF721FB07468DE7B0F85020DB00F0
:1014C80013FA82F30344B3F80674C7F30907002F2D
:1014D80081D004EB840105EBC1013B46B1F85A21E8
:1014E800D1F8641103F020FA75E74146286802F044
:1014F80034FEF6E6631C03EB8303DB000022EA50AC
:1015080004EB840305EBC3031B7F1BB316F0400FEA
:101518003BD004EB840305EBC3035B7C1BBB2A684D
:10152800B2F8503012FA83F304EB840205EBC202DE
:10153800127C03EBC203B3F80224C2F30902A3F836
:101548000224B3F802246FEA42426FEA524292B28E
:10155800A3F8022404EB840405EBC404217C284688
:1015680004F022FAD1E5012BF4D12A68B2F8503000
:1015780012FA83F304EB840205EBC202127C03EB3C
:10158800C2030022A3F80224E4E72A6804EB8403D8
:1015980005EBC3035B7CD3B9B2F8503012FA83F37E
:1015A80004EB840205EBC202127C03EBC203B3F81E
:1015B8000624C2F30902A3F80624B3F806246FEA46
:1015C80042426FEA524292B2A3F80624C2E7012BC4
:1015D800C0D1B2F8503012FA83F304EB840205EB61
:1015E800C202127C03EBC2030022A3F80624B1E76F
:1015F800621C02EB8202D2000027AF50B3E604EB74
:10160800840205EBC202566A1E445662013404EB9A
:10161800840205EBC202526804EB840405EBC4049F
:101628001344636002F099FD6FE532462846FFF7E0
:101638005FFB6AE50020BDE8F08190F89032012B4D
:101648000CD010B50446012380F89032017300686D
:1016580002F05CFD002084F8900210BD0220704763
:1016680010B50446006802F062FD10F4004F23D163
:1016780010F4806F24D110F4804F32D110F4005F41
:1016880039D110F4805F40D110F4006F67D110F0A9
:10169800800F40F0818010F4007F40F0AD8010F49E
:1016A800807F27D02268B2F844309BB223F480733D
:1016B8009BB2A2F844301DE02046FFF723FD19E055
:1016C8002268B2F844309BB223F480639BB2A2F83C
:1016D8004430204604F079F900212046FFF7ADFF99
:1016E80008E02268B2F844309BB223F480439BB2EE
:1016F800A2F8443010BD2268B2F844309BB223F4FB
:1017080000539BB2A2F84430F4E72268B2F84030A4
:101718009BB223F004039BB2A2F840302268B2F8CF
:1017280040309BB223F008039BB2A2F8403094F8F3
:10173800C832012B0CD0204604F06AF92268B2F8AE
:1017480044309BB223F480539BB2A2F84430D1E7D3
:10175800002184F8C812204604F012FAEBE7226848
:10176800B2F840309BB243F00803A2F84030226838
:10177800B2F844309BB223F400639BB2A2F8443021
:101788002268B2F840309BB243F00403A2F840301C
:10179800204604F02DF9ADE72268B2F844309BB238
:1017A80023F080039BB2A2F8443094F8C832FBB906
:1017B8002268B2F840309BB243F00403A2F84030EC
:1017C8002268B2F840309BB243F00803A2F84030D8
:1017D800012184F8C8122368B3F85430C3F38D0389
:1017E80003F03C03C4F8CC32204604F0C9F981E781
:1017F800204604F0FDF87DE72268B2F844309BB239
:1018080023F400739BB2A2F84430204604F0D7F8C2
:1018180070E710B50446084611F0800F26D101F094
:10182800070C0CEB8C0E4FEACE0E0EF5A87E04EBDF
:101838000E010CEB8C0C04EBCC0C4FF0000E8CF86A
:1018480051E100F0070008700A61CB70022B1DD02F
:1018580094F89032012B1CD0012384F89032206830
:1018680002F00EF9002084F8900210BD01F0070C78
:101878000CEB8C01C900103121440CEB8C0C04EBEF
:10188800CC0C4FF0010E8CF811E0DAE700230B7155
:10189800DEE70220E9E710B504460A4611F0800F9A
:1018A8001FD101F0070000EB8003DB0003F5A873EC
:1018B800E11800EB800004EBC000002380F85131F0
:1018C80002F007020A7094F89032012B17D0012316
:1018D80084F89032206802F0B8FA002084F8900268
:1018E80010BD01F0070000EB8003DB001033E118A6
:1018F80000EB800004EBC00001234374E0E7022002
:10190800EEE710B501F0070C0CEB8C01C90001F5EE
:10191800A8710CEB8C0E00EBCE0ECEF86421CEF83D
:1019280068310024CEF86C418EF851418EF850C1D0
:101938000144006802F011FC204610BD01F00701C7
:1019480001EB810100EBC100D0F86C01704738B59C
:1019580001F0070C0CEB8C01C90010310CEB8C0E5C
:1019680000EBCE0ECEF824200CF1010202EB82042B
:1019780040F8343001258EF83450CEF8303000EB82
:10198800C402002454608EF811508EF810C001442F
:10199800006802F0E2FB204638BD0B4601F0070262
:1019A800017991422ED310B5044613F0800F1DD152
:1019B80003EB8301C90001F5A871014403EB83031C
:1019C80000EBC303002083F8510101238B700A70D8
:1019D80094F89032012B17D0012384F890322068B4
:1019E80002F01EFB002084F8900210BD02EB820179
:1019F800C9001031014402EB820300EBC30301204C
:101A08005874E2E7012070470220EEE70B4601799F
:101A180003F00F02914234D310B5044613F0800F3F
:101A280021D103F0070202EB8201C90001F5A87178
:101A3800014402EB820200EBC202002082F851014D
:101A480000228A7003F007030B7094F89032012B80
:101A580019D0012384F89032206802F006FB002098
:101A680084F8900210BD03F0070202EB8201C9005E
:101A78001031014402EB820200EBC20201205074D3
:101A8800DEE7012070470220ECE711F0800F0BD051
:101A980001F0070101EB8101C9001031084452B976
:101AA8000273C3800020704701EB8101C90001F572
:101AB800A8710844F3E70122027303811B0C4381D8
:101AC800F0E7034602680121C0F8D012002083F82D
:101AD800C802B2F854309BB20B43A2F85430B2F8A3
:101AE80054309BB243F00203A2F854307047000010
:101AF800002836D13E4B1B6803F4C063B3F5806FF2
:101B080008D03B4AD2F8803023F48073C2F8803082
:101B180000207047364AD2F8803023F48073C2F828
:101B28008030136823F4C06343F400731360314BAF
:101B38001B68322202FB03F32F4AA2FB03239B0CF0
:101B4800013300E0013B2A4A526912F4806F01D048
:101B5800002BF7D1264B5B6913F4806F44D100202A
:101B68007047B0F5007F08D0214A136823F4C0639A
:101B780043F480631360002070471D4B1B6803F417
:101B8800C063B3F5806F08D0194AD2F8803043F4A7
:101B98008073C2F8803000207047154AD2F8803030
:101BA80043F48073C2F88030136823F4C06343F4AD
:101BB800007313600F4B1B68322202FB03F30E4ABB
:101BC800A2FB03239B0C013300E0013B084A526946
:101BD80012F4806F01D0002BF7D1054B5B6913F429
:101BE800806F03D10020704703207047032070479F
:101BF800007000400000002083DE1B43024A936807
:101C080043F480439360704700700040124BDA68D9
:101C180002F00302DB68C3F303130133032A11D074
:101C28000E48B0FBF3F00C4BDB68C3F3062303FB51
:101C380000F0094BDB68C3F3416301335B00B0FB81
:101C4800F3F070470648B0FBF3F0034BDB68C3F3CF
:101C5800062303FB00F0ECE7001002400024F40028
:101C680000127A00002800F04F8270B582B0044656
:101C7800036813F0010F37D0A44A936803F00C03EC
:101C8800D26802F003020C2B23D0082B23D0636800
:101C9800B3F5803F4ED0B3F5A02F51D09B4B1A68B7
:101CA80022F480321A601A6822F480221A6063686B
:101CB800002B52D0FEF72CFD0546944B1B6813F4FD
:101CC800003F11D1FEF724FD401B6428F5D90320FD
:101CD80023E2032AD9D18D4B1B6813F4003F03D0AC
:101CE8006368002B00F01282236813F0020F5DD0A6
:101CF800864A936803F00C03D26802F003020C2BA7
:101D08003AD0042B3AD0E368002B75D07F4A136889
:101D180043F480731360FEF7FBFC05467B4B1B689E
:101D280013F4806F5FD1FEF7F3FC401B0228F5D94E
:101D38000320F2E1754A136843F480331360B6E771
:101D480003F18043A3F53C331A6842F480221A60F9
:101D58001A6842F480321A60A9E7FEF7D9FC0546F2
:101D68006A4B1B6813F4003FBED0FEF7D1FC401B42
:101D78006428F5D90320D0E1022AC2D1634B1B683D
:101D880013F4806F03D0E368002B00F0C1815F4A31
:101D9800536823F0FE43216943EA016353605C4BB7
:101DA8001868FEF771FC002840F0B481236813F02E
:101DB800080F4CD063699BB3544AD2F8943043F06F
:101DC8000103C2F89430FEF7A3FC05464F4BD3F845
:101DD800943013F0020F3AD1FEF79AFC401B022808
:101DE800F4D9032099E1494A536823F0FE43216955
:101DF80043EA01635360D9E7444A136823F48073C4
:101E08001360FEF785FC0546404B1B6813F4806F92
:101E1800CCD0FEF77DFC401B0228F5D903207CE1DD
:101E28003A4AD2F8943023F00103C2F89430FEF70E
:101E38006FFC0546354BD3F8943013F0020F06D0EB
:101E4800FEF766FC401B0228F4D9032065E12368ED
:101E580013F0040F00F081802C4B9B6D13F0805F12
:101E680036D12A4B9A6D42F080529A659B6D03F0E9
:101E780080530193019B0125264B1B6813F4807F37
:101E880028D0A368012B39D0052B45D01F4BD3F898
:101E9800902022F00102C3F89020D3F8902022F07D
:101EA8000402C3F89020A368002B43D0FEF730FC4F
:101EB8000646164BD3F8903013F0020F4CD1FEF7BC
:101EC80027FC801B41F288339842F2D9032024E191
:101ED8000025D1E70F4A136843F480731360FEF7B7
:101EE80017FC06460B4B1B6813F4807FC9D1FEF71D
:101EF8000FFC801B0228F5D903200EE1034AD2F813
:101F0800903043F00103C2F89030CCE70010024053
:101F18000800002000700040884BD3F8902042F061
:101F28000402C3F89020D3F8902042F00102C3F8CD
:101F38009020B8E7FEF7ECFB0646804BD3F89030CC
:101F480013F0020F08D0FEF7E3FB801B41F2883341
:101F58009842F2D90320E0E0E5B9236813F0200F96
:101F680035D0A369E3B1754AD2F8983043F001033C
:101F7800C2F89830FEF7CCFB0546704BD3F8983082
:101F880013F0020F23D1FEF7C3FB401B0228F4D93C
:101F98000320C2E0694A936D23F080539365DCE720
:101FA800664AD2F8983023F00103C2F89830FEF759
:101FB800AFFB0546614BD3F8983013F0020F06D0FB
:101FC800FEF7A6FB401B0228F4D90320A5E0E3692D
:101FD800002B00F0A180594A926802F00C020C2AEA
:101FE80064D0022B13D0554A136823F08073136012
:101FF800FEF78EFB0446514B1B6813F0007F4ED052
:10200800FEF786FB001B0228F5D9032085E04B4A22
:10201800136823F080731360FEF77AFB0546474B7D
:102028001B6813F0007F06D0FEF772FB401B0228E6
:10203800F5D9032071E0414AD36841491940236A20
:10204800606A013843EA0013A06A43EA0023206B60
:102058004008013843EA4053606B4008013843EABE
:102068004063E06A43EAC0631943D160136843F0F0
:1020780080731360D36843F08073D360FEF748FB26
:1020880004462E4B1B6813F0007F06D1FEF740FB79
:10209800001B0228F5D903203FE000203DE0274A35
:1020A800D168284B0B40D360002036E0012B36D096
:1020B800224BDB6803F00301226A914231D103F01D
:1020C800F002616A0139B2EB011F2CD103F4FE4220
:1020D800A16AB2EB012F28D103F07842E16AB2EB92
:1020E800C16F24D103F4C001226B5208013AB1EB4D
:1020F800425F1ED103F0C063626B5208013AB3EB32
:10210800426F18D1002008E001207047012004E048
:10211800012002E0012000E0002002B070BD012093
:10212800FBE70120F9E70120F7E70120F5E70120A7
:10213800F3E70120F1E70120EFE700BF00100240BC
:102148000C809F01FCFFEEFE1E4B9B6803F00C0306
:10215800042B33D01B4B9B6803F00C03082B2FD0A8
:10216800184B9B6803F00C030C2B01D00020704720
:10217800144BDA6802F00302DB68C3F3031301337C
:10218800032A11D01048B0FBF3F00E4BDB68C3F301
:10219800062303FB00F00B4BDB68C3F341630133F9
:1021A8005B00B0FBF3F070470848B0FBF3F0054B59
:1021B800DB68C3F3062303FB00F0ECE70248704733
:1021C80002487047001002400024F40000127A0010
:1021D800002800F0E680F8B50C460546744B1B68ED
:1021E80003F00F038B420BD2714A136823F00F03DD
:1021F8000B431360136803F00F038B4240F0D38046
:102208002E6816F001065FD06B68032B2FD0022BC7
:102218004DD0684B1B6813F4806F00F0C680FFF741
:1022280093FF654B98424DD9624A936823F0F003B7
:1022380043F08003936080265E4A936823F003038B
:1022480069680B439360FEF763FA0746594B9B682E
:1022580003F00C036A68B3EB820F35D0FEF758FA27
:10226800C01B41F288339842F0D9032078E0514BE3
:102278001B6813F0007F01D1012071E0FFF7C6FC55
:102288004D4B98421AD94B4B9B6813F0F00F05D071
:102298002E6816F00206CFD0AB688BB9454A936812
:1022A80023F0F00343F0800393608026C4E7414B9A
:1022B8001B6813F4003FB2D1012051E00026BBE7B0
:1022C8000026B9E70026B7E72B6813F0020F48D0BD
:1022D80013F0040F04D0374A936843F4E063936023
:1022E8002B6813F0080F06D0324A936823F47C5306
:1022F80043F4E06393602F4A936823F0F003A968DE
:102308000B4393602A4B1B6803F00F03A34230D89A
:102318002B6813F0040F06D0264A936823F4E06371
:10232800E9680B4393602B6813F0080F07D0214A24
:10233800936823F46053296943EAC1039360FFF764
:1023480003FF1C4B9B68C3F303131C4AD35C03F0C5
:102358001F03D8401A4B18601A4B1868FEF794F9F7
:10236800F8BD802ECED1134A936823F0F003936012
:10237800C8E70F4A136823F00F0323431360FEF7DF
:10238800C7F906460A4B1B6803F00F03A342BFD0E8
:10239800FEF7BEF9801B41F288339842F2D9032038
:1023A800DEE7012070470120DAE70120D8E700BF07
:1023B800002002400010024000B4C4047860000805
:1023C8000000002008000020014B1868704700BF7B
:1023D8000000002008B5FFF7F7FF054B9B68C3F323
:1023E8000223044AD35C03F01F03D84008BD00BF92
:1023F800001002407060000808B5FFF7E5FF054BC4
:102408009B68C3F3C223044AD35C03F01F03D8407C
:1024180008BD00BF0010024070600008F0B583B02E
:102428000446036813F4002F6ED0354B9B6D13F0F0
:10243800805F1ED1324B9A6D42F080529A659B6D37
:1024480003F080530193019B01262E4A136843F43D
:1024580080731360FEF75CF905462A4B1B6813F47A
:10246800807F08D1FEF754F9401B0228F5D90325CF
:1024780002E00026E9E7002545BB214BD3F8903060
:1024880013F4407315D0E26C9A4212D01C4AD2F869
:10249800903023F44073D2F8901041F48031C2F8A0
:1024A8009010D2F8901021F48031C2F89010C2F840
:1024B800903013F0010F10D145B9114AD2F890307D
:1024C80023F44073E16C0B43C2F89030EEB10C4A30
:1024D800936D23F08053936517E0FEF719F90746CB
:1024E800074BD3F8903013F0020FE5D1FEF710F93F
:1024F800C01B41F288339842F2D90325DCE700BFBC
:1025080000100240007000400025236813F0010FFE
:1025180008D0984AD2F8883023F0030361680B4347
:10252800C2F88830236813F0020F08D0914AD2F815
:10253800883023F00C03A1680B43C2F88830236865
:1025480013F0040F08D08B4AD2F8883023F03003F8
:10255800E1680B43C2F88830236813F0080F08D0ED
:10256800844AD2F8883023F0C00321690B43C2F8AB
:102578008830236813F0100F08D07E4AD2F88830CC
:1025880023F4407361690B43C2F88830236813F061
:10259800200F08D0774AD2F8883023F44063A16925
:1025A8000B43C2F88830236813F0400F08D0714AF3
:1025B800D2F8883023F44053E1690B43C2F88830DD
:1025C800236813F0800F08D06A4AD2F8883023F4C1
:1025D8004043216A0B43C2F88830236813F4807F94
:1025E80008D0644AD2F8883023F44033616A0B4338
:1025F800C2F88830236813F4007F08D05D4AD2F807
:10260800883023F44023A16A0B43C2F8883023683A
:1026180013F4806F0CD0574AD2F8883023F4401353
:10262800E16A0B43C2F88830E36AB3F5801F79D0BA
:10263800236813F4006F0CD04E4AD2F8883023F484
:102648004003216B0B43C2F88830236BB3F5800F2E
:102658006DD0236813F4805F0CD0464AD2F88830D6
:1026680023F04073616B0B43C2F88830636BB3F19E
:10267800807F61D0236813F4005F0CD03D4AD2F804
:10268800883023F04063A16B0B43C2F88830A36BFA
:10269800B3F1006F55D0236813F4804F0CD0354A3E
:1026A800D2F8883023F04063E16B0B43C2F88830DE
:1026B800E36BB3F1006F49D0236813F4004F0CD0DB
:1026C8002C4AD2F8883023F04053216C0B43C2F8CF
:1026D8008830236CB3F1805F3DD0236813F4803FCA
:1026E8000CD0244AD2F8883023F04043616C0B4365
:1026F800C2F88830636CB3F1804F31D0236813F48B
:10270800802F0CD01B4AD2F89C3023F44013A16CC4
:102718000B43C2F89C30A36CB3F5001F25D02846A4
:1027280003B0F0BDD36843F48013D36080E7D36867
:1027380043F48013D3608CE7D36843F48013D360E9
:1027480098E7D36843F48013D360A4E7D36843F4CD
:102758008013D360B0E7D36843F48033D360BCE719
:10276800D36843F48033D360C8E7D36843F4801355
:10277800D360D4E700100240026852E8003F23F417
:10278800907342E800310029F6D1026802F108038B
:1027980053E8003F23F0805323F00103083242E856
:1027A80000310029F1D1C36E012B06D02023C0F8D7
:1027B8008C300023C36643677047026852E8003FC5
:1027C80023F0100342E800310029F6D1EEE7704704
:1027D80008B5026852E8003F23F0400342E80031A0
:1027E8000029F6D12023C0F8883000238367FFF73B
:1027F800EEFF08BD704708B5806A0023A0F85E3078
:10280800A0F85630FFF7F6FF08BD704770B50446CC
:102818000268D3691068916840F60F0C13EA0C0F30
:102828000DD113F0200F10D010F0200F02D111F0AD
:10283800805F0AD0636F93B3204698472FE0B44D6A
:102848000D402DD1B34E30422AD1E56E012D00F056
:10285800C08013F4801F03D011F4800F40F05E8114
:1028680013F0800F07D010F0800F40F05E8111F454
:10287800000F40F05A8113F0400F03D010F0400FC2
:1028880040F05A8113F4000F03D010F0804F40F04D
:10289800578113F0807F02D00028C0F2558170BDA7
:1028A80013F0010F09D010F4807F06D001261662BC
:1028B800D4F890203243C4F8902013F0020F0BD0C4
:1028C80011F0010F08D0226802261662D4F8902071
:1028D80042F00402C4F8902013F0040F0BD011F05A
:1028E800010F08D0226804261662D4F8902042F01E
:1028F8000202C4F8902013F0080F0BD010F0200F3C
:1029080000D13DB1226808251562D4F890202A43E9
:10291800C4F8902013F4006F0CD010F0806F09D029
:1029280022684FF400651562D4F8902042F0200226
:10293800C4F89020D4F89020002AB0D013F0200FCB
:1029480009D010F0200F02D111F0805F03D0636F1F
:102958000BB120469847D4F8902023689B6813F061
:10296800400F02D112F0280F2CD02046FFF704FFA9
:1029780023689B6813F0400F20D0226802F10803F7
:1029880053E8003F23F04003083242E800310029B1
:10299800F3D1D4F880306BB15F4A9A63D4F88000E1
:1029A800FDF76EFF00283FF47AAFD4F88000836B00
:1029B800984774E72046FFF71DFF70E72046FFF7AA
:1029C80019FF6CE72046FFF715FF0023C4F8903085
:1029D80065E713F0100F3FF43CAF10F0100F3FF411
:1029E80038AF1023136223689B6813F0400F53D04D
:1029F800D4F8802013685B689BB2002B3FF44FAF7C
:102A0800B4F85C1099427FF64AAFA4F85E301368B8
:102A18001B6813F0200F32D1226852E8003F23F4DC
:102A2800807342E800310029F6D1226802F10803D8
:102A380053E8003F23F00103083242E8003100293F
:102A4800F3D1226802F1080353E8003F23F0400362
:102A5800083242E800310029F3D12023C4F88C3031
:102A68000023E366226852E8003F23F0100342E89F
:102A780000310029F6D1D4F88000FDF7CBFE0223FF
:102A88002367B4F85C10B4F85E309BB2C91A89B2F7
:102A98002046FFF7BAFE02E7B4F85C10B4F85E30DF
:102AA8009BB2C91A89B2B4F85E309BB2002B3FF4CE
:102AB800F6AE00293FF4F3AE226852E8003F23F453
:102AC800907342E800300028F6D1226802F108032A
:102AD80053E8003F23F0805323F00103083242E813
:102AE80000300028F1D12023C4F88C300023E3669D
:102AF8006367226852E8003F23F0100342E8003081
:102B08000028F6D1022323672046FFF77EFEC6E69B
:102B18000100001020010004FF2700084FF4801373
:102B28001362204600F01CFFB9E6A36F002B3FF4A8
:102B3800B6AE20469847B2E62046FFF749FEAEE615
:102B4800204600F00FFFAAE6204600F00AFFA6E69E
:102B580008B5B0F86030D0F88C20222A05D0026879
:102B6800936943F00803936108BD0268516ADBB2B8
:102B7800826D0B401370836D01338365B0F85E304E
:102B88009BB2013B9BB2A0F85E30B0F85E309BB2BE
:102B9800002BE9D1026852E8003F23F4907342E821
:102BA80000310029F6D1026802F1080353E8003F1A
:102BB80023F00103083242E800310029F3D1202331
:102BC800C0F88C300023436703670368164A9342B2
:102BD8000CD05B6813F4000F08D0026852E8003F7D
:102BE80023F0806342E800310029F6D1C36E012B3F
:102BF80016D10023C366026852E8003F23F0100391
:102C080042E800310029F6D10368DA6912F0100FA2
:102C180001D010221A62B0F85C10FFF7F6FDA3E7A6
:102C2800FDF75EFBA0E700BF0080004008B5B0F8E4
:102C38006020D0F88C30222B05D00268936943F0CD
:102C48000803936108BD03685B6A816D13400B80BC
:102C5800836D02338365B0F85E309BB2013B9BB253
:102C6800A0F85E30B0F85E309BB2002BEAD1026863
:102C780052E8003F23F4907342E800310029F6D16E
:102C8800026802F1080353E8003F23F00103083209
:102C980042E800310029F3D12023C0F88C3000230A
:102CA800436703670368164A93420CD05B6813F4C2
:102CB800000F08D0026852E8003F23F0806342E822
:102CC80000310029F6D1C36E012B16D10023C3664B
:102CD800026852E8003F23F0100342E8003100295F
:102CE800F6D10368DA6912F0100F01D010221A62C7
:102CF800B0F85C10FFF789FDA4E7FDF7F1FAA1E74A
:102D0800008000402DE9F843B0F860600368DD6991
:102D1800D3F80090D3F80880D0F88C20222A05D068
:102D28009A6942F008029A61BDE8F8830446B0F84F
:102D3800687008E0D4F89030002B4CD1B4F85E30BD
:102D48009BB2002B4ED0002F00F09A8015F0200F78
:102D580000F096802368596AF3B2A26D0B40137095
:102D6800A36D0133A365B4F85E309BB2013B9BB2FF
:102D7800A4F85E302368DD6915F0070FDED015F082
:102D8800010F09D019F4807F06D001221A62D4F805
:102D980090301343C4F8903015F0020F0BD018F0A0
:102DA800010F08D0236802221A62D4F8903043F049
:102DB8000403C4F8903015F0040FBBD018F0010FCD
:102DC800B8D0236804221A62D4F8903043F0020382
:102DD800C4F89030AEE72046FFF70CFD0023C4F896
:102DE8009030ABE7226852E8003F23F4807342E852
:102DF80000310029F6D1226802F1080353E8003FA8
:102E080023F0805323F00103083242E800310029FF
:102E1800F1D12023C4F88C3000236367236723682B
:102E2800294A934203D05B6813F4000F06D1E36E7E
:102E3800012B0DD02046FDF753FA84E7226852E8AB
:102E4800003F23F0806342E800310029F6D1EEE725
:102E58000023E366226852E8003F23F0100342E8AB
:102E680000310029F6D12368DA6912F0100F01D079
:102E780010221A62B4F85C102046FFF7C6FC62E71D
:102E8800B4F85E309BB2002B3FF44EAFB4F8682024
:102E98009A427FF649AF226802F1080353E8003FDF
:102EA80023F08053083242E800310029F3D1074B60
:102EB8006367226852E8003F43F0200342E800318C
:102EC8000029F6D130E700BF00800040592B0008E8
:102ED8002DE9F843B0F860600368DD69D3F8009025
:102EE800D3F80880D0F88C20222A05D09A6942F0BD
:102EF80008029A61BDE8F8830446B0F8687008E0F3
:102F0800D4F89030002B4BD1B4F85E309BB2002B34
:102F18004DD0002F00F0998015F0200F00F095801B
:102F280023685B6AA26D33401380A36D0233A365E7
:102F3800B4F85E309BB2013B9BB2A4F85E302368C4
:102F4800DD6915F0070FDFD015F0010F09D019F46E
:102F5800807F06D001221A62D4F890301343C4F857
:102F6800903015F0020F0BD018F0010F08D023682D
:102F780002221A62D4F8903043F00403C4F8903067
:102F880015F0040FBCD018F0010FB9D02368042243
:102F98001A62D4F8903043F00203C4F89030AFE7D7
:102FA8002046FFF727FC0023C4F89030ACE72268DE
:102FB80052E8003F23F4807342E800310029F6D13B
:102FC800226802F1080353E8003F23F0805323F0FE
:102FD8000103083242E800310029F1D12023C4F866
:102FE8008C300023636723672368294A934203D000
:102FF8005B6813F4000F06D1E36E012B0DD0204659
:10300800FDF76EF985E7226852E8003F23F08063F8
:1030180042E800310029F6D1EEE70023E366226892
:1030280052E8003F23F0100342E800310029F6D1AE
:103038002368DA6912F0100F01D010221A62B4F86E
:103048005C102046FFF7E1FB63E7B4F85E309BB203
:10305800002B3FF44FAFB4F868209A427FF64AAF8E
:10306800226802F1080353E8003F23F08053083236
:1030780042E800310029F3D1064B6367226852E821
:10308800003F43F0200342E800310029F6D131E740
:1030980000800040352C000870B50446836802693A
:1030A800134342691343C269134301680868964A87
:1030B80002401A430A602268536823F44053E168C7
:1030C8000B435360A1692268904B9A4201D0236A4E
:1030D8001943936823F06E4323F430630B439360E2
:1030E8002268D36A23F00F03616A0B43D362236813
:1030F800874A934226D0874A934237D0864A9342DA
:103108004DD0864A93425DD0854A93426CD07F4A1F
:1031180093427ED010227D498B4200F0B380E06953
:10312800B0F5004F00F00481082A00F26F81DFE853
:1031380012F03201540130016D0157016D016D012A
:103148006D015A0102F55842D2F8882002F00302B4
:10315800032A09D8DFE802F0020472060122DAE73E
:103168000422D8E70822D6E71022D4E702F5E6328F
:10317800D2F8882002F00C020C2A0ED8DFE802F000
:10318800070D0D0D090D0D0D600D0D0D0B00002225
:10319800C1E70422BFE70822BDE71022BBE702F51A
:1031A800E432D2F8882002F03002202A4AD005D82A
:1031B800002A49D0102A49D10422ACE7302A47D145
:1031C8000822A8E702F5E232D2F8882002F0C0020D
:1031D800802A3FD004D8FAB3402A3FD104229AE784
:1031E800C02A3DD1082296E702F5E032D2F88820BD
:1031F80002F44072B2F5007F34D005D8A2B3B2F51C
:10320800807F33D1042286E7B2F5407F30D108228F
:1032180081E702F5C832D2F8882002F44062B2F59C
:10322800006F27D005D83AB3B2F5806F26D10422B3
:1032380071E7B2F5406F23D108226CE702226AE7F2
:10324800022268E7022266E7002264E7102262E7AA
:10325800102260E702225EE700225CE710225AE7AC
:10326800102258E7022256E7002254E7102252E7BC
:10327800102250E702224EE700224CE710224AE7CC
:10328800102248E7082A00F2B180DFE802F008AF10
:103298003BAF38AFAFAF05004FF4004004E0FFF795
:1032A80099F8002800F0A480626A1E4B33F81220B7
:1032B800B0FBF2F3656805EB4501994200F29A808C
:1032C800B3EB053F00F29880002633463146FCF701
:1032D8007FFF090241EA106100026B08C0182A4604
:1032E800334641F10001FCF773FFA0F540720E4B25
:1032F8009A4200F283802368D860304664E0FEF783
:1033080023FFCEE70948CFE7F369FFCF00800040ED
:10331800003801400044004000480040004C004094
:103328000050004088600008FFFC0F000024F400F3
:10333800082A65D8DFE802F0072705642A64646470
:103348000B00354803E0FFF745F800285AD0626AB9
:10335800324B33F81230B0FBF3F06268530803EBDA
:103368004003B3FBF2F3A3F110014FF6EF72914261
:103378004AD89AB222F00F02C3F3420313432268D9
:10338800D360002020E0FFF737F8DEE7FEF7DCFE29
:10339800DBE7214803E0FFF71DF8002838D0626A10
:1033A8001E4B33F81230B0FBF3F0636800EB5300A8
:1033B800B0FBF3F0A0F110024FF6EF739A4229D850
:1033C800236880B2D86000200123A4F86A30A4F8EA
:1033D800683000236367A36770BDFFF70DF8DCE76B
:1033E800FEF7B2FED9E74FF40040D8E70120EBE73B
:1033F8000020E9E70120E7E70120E5E70120E3E70E
:103408000120E1E70020DFE70120DDE70120DBE71D
:103418000020D9E70120D7E70024F40088600008DD
:10342800836A13F0080F06D00268536823F4004338
:10343800816B0B435360836A13F0010F06D0026857
:10344800536823F40033C16A0B435360836A13F053
:10345800020F06D00268536823F48033016B0B43D4
:103468005360836A13F0040F06D00268536823F48C
:103478008023416B0B435360836A13F0100F06D00F
:103488000268936823F48053C16B0B439360836A8B
:1034980013F0200F06D00268936823F40053016CE0
:1034A8000B439360836A13F0400F0AD00268536895
:1034B80023F48013416C0B435360436CB3F5801FB6
:1034C8000BD0836A13F0800F06D00268536823F488
:1034D8000023C16C0B43536070470268536823F4A0
:1034E800C003816C0B435360EBE72DE9F8430546B5
:1034F8000E4617469946DDF820802B68DC6936EAC7
:1035080004040CBF01240024BC4236D1B8F1FF3FAB
:10351800F3D0FDF7FDF8A0EB0900404530D8B8F12D
:10352800000F2FD02B681A6812F0040FE5D0802EF8
:10353800E3D0402EE1D0DA6912F0080F11D1DA6930
:1035480012F4006FD9D04FF400621A622846FFF7D0
:1035580013F92023C5F89030002385F88430032020
:103568000CE008241C622846FFF706F9C5F89040CD
:10357800002385F88430012000E00020BDE8F883AE
:103588000320FBE70320F9E72DE9F04182B01E464E
:10359800D0F88830202B5AD104460D469046002991
:1035A80059D00AB9012053E00023C0F890302123F4
:1035B800C0F88830FDF7ACF80746A4F85480A4F8A2
:1035C8005680A368B3F5805F02D04FF0000816E07C
:1035D800236943B34FF0000811E02023C4F8883072
:1035E800032035E038F8023B2268C3F308039362EE
:1035F800B4F8562092B2013A92B2A4F85620B4F820
:1036080056309BB293B100963B460022802120465B
:10361800FFF76BFF0028E0D1002DE3D015F8012B50
:1036280023689A62E4E7A8460025E8E700963B4647
:10363800002240212046FFF758FF18B92023C4F87C
:10364800883005E02023C4F88830032000E00220F9
:1036580002B0BDE8F0810120FAE730B583B0044636
:103668000023C0F89030FDF753F805462268126829
:1036780012F0080F10D123681B6813F0040F28D12B
:103688002023C4F88830C4F88C300020E066206716
:1036980084F8840003B030BD6FF07E430093034686
:1036A80000224FF400112046FFF71FFF0028E2D048
:1036B800226852E8003F23F0800342E800310029E5
:1036C800F6D12023C4F88830002384F884300320FE
:1036D800E0E76FF07E4300932B4600224FF4800111
:1036E8002046FFF702FF0028CAD0226852E8003FB0
:1036F80023F4907342E800310029F6D1226802F1E0
:10370800080353E8003F23F00103083242E8003180
:103718000029F3D12023C4F88C30002384F88430A6
:103728000320B7E778B310B50446D0F888300BB358
:103738002423C4F888302268136823F00103136037
:10374800A36AE3B92046FFF7A7FC012811D0226835
:10375800536823F4904353602268936823F02A0344
:1037680093602268136843F0010313602046FFF753
:1037780074FF10BD80F88430FCF7F4FED8E72046CB
:10378800FFF74EFEDEE701207047000010B48165A8
:10379800A0F85C20A0F85E20002343678368B3F597
:1037A800805F06D0A3B9036973B9FF23A0F860301E
:1037B80014E0036923B940F2FF13A0F860300DE06C
:1037C800FF23A0F8603009E07F23A0F8603005E00F
:1037D800B3F1805F2DD00023A0F860300023C0F83B
:1037E80090302223C0F88C30016801F1080353E8B7
:1037F800003F43F00103083141E80034002CF3D1C5
:10380800436EB3F1005F1ED08368B3F5805F42D08A
:10381800294B43670369002B43D0026852E8003FF5
:1038280043F4907342E800310029F6D1002010BC1F
:10383800704703691BB97F23A0F86030CEE73F23A8
:10384800A0F86030CAE7B0F868309342DCD88368E3
:10385800B3F5805F19D0194B4367036943B1026818
:1038680052E8003F43F4807342E800310029F6D162
:10387800026802F1080353E8003F43F0805308321E
:1038880042E800310029F3D1D0E70369002BE2D1E7
:103898000B4B4367E1E70369002BB9D1094B436739
:1038A800B8E7026852E8003F43F0200342E80031DD
:1038B8000029F6D1BAE700BF592B00080D2D0008E2
:1038C800D92E0008352C000838B5D0F88C30202BBC
:1038D80017D1C1B1CAB10023C36603680C4CA34217
:1038E8000CD05B6813F4000F08D0046854E8003F5C
:1038F80043F0806344E80035002DF6D1FFF746FF1A
:1039080000E0022038BD0120FCE70120FAE700BFF3
:1039180000800040436E2BB90123A0F86A30A0F85C
:103928006830704730B403689A68C2F34262996895
:10393800490F094D6B5CDB00084C615C93FBF1F3AC
:10394800A0F86A30AB5CDB00A25C93FBF2F3A0F852
:10395800683030BC704700BFA8600008A06000084D
:1039680070477047704790F88430012B18D00123B6
:1039780080F884302423C0F8883003681A681968EE
:1039880021F00101196022F000520023436601680A
:103998000A602022C0F8882080F8843018467047D2
:1039A8000220704738B590F88430012B1DD00446AA
:1039B800012380F884302423C0F8883003681D6808
:1039C8001A6822F001021A600268936823F06043C3
:1039D80019439160FFF79EFF23681D602023C4F8F8
:1039E8008830002084F8840038BD0220FCE738B510
:1039F80090F88430012B1DD00446012380F88430D0
:103A08002423C0F8883003681D681A6822F0010270
:103A18001A600268936823F0606319439160FFF7A6
:103A280079FF23681D602023C4F88830002084F8BB
:103A3800840038BD0220FCE703460020A3F84400B8
:103A48004BF68072A3F840207047B0F8403023F45A
:103A58007E535B045B0CA0F840300020704782B0B6
:103A6800034602A800E906000122A3F8402000202E
:103A7800A3F84000A3F84400A3F8500002B0704730
:103A880010B5034691F800C030F82C2092B222F409
:103A9800EC4222F0700292B2C878032861D8DFE8BD
:103AA80000F0555C0258002048F2800E42EA0E02EF
:103AB80023F82C2091F800C033F82C2092B222F47D
:103AC800E04222F070024CEA020242EA0E0223F8B7
:103AD8002C200A7B002A40F0DC804A78002A51D04A
:103AE800B3F8502013FA82F20C7802EBC402B1F852
:103AF80006C04FEA5C0C4FEA4C0CA2F800C40C78E4
:103B080033F8242012F0400F0CD033F8242092B25E
:103B180022F4E04222F0700242F4004242F0C00275
:103B280023F82420CA78012A1DD0097833F82120E7
:103B380092B222F4E04222F0400282F0200242F4E3
:103B4800004242F0800223F8212017E142F400727B
:103B5800AAE742F4C0620020A6E742F4806200208F
:103B6800A2E70120A0E7097833F8212092B222F4D5
:103B7800E04222F0400242F4004242F0800223F880
:103B88002120FBE0B3F8502013FA82F20C7802EB04
:103B9800C402B1F806C04FEA5C0C4FEA4C0CA2F81C
:103BA80004C4B3F8502013FA82F20C7802EBC40272
:103BB800B2F806C4CCF3090CA2F806C40C693E2C72
:103BC80039D94FEA541E14F01F0F01D10EF1FF3EF0
:103BD800B2F806C41FFA8CFC4FEA8E2E1FFA8EFE2E
:103BE8004CEA0E0C4CF4004CA2F806C40C7833F8DE
:103BF800242012F4804F0CD033F8242092B222F4FF
:103C0800E04222F0700242F4404242F0800223F87F
:103C18002420097869BB33F8212092B222F480422B
:103C280022F0700282F4405242F4004242F08002D4
:103C380023F82120A2E04CB9B2F806446FEA4444C4
:103C48006FEA5444A4B2A2F80644CFE74FEA540CF2
:103C580014F0010F01D00CF1010CB2F80644A4B223
:103C68004FEA8C2C1FFA8CFC44EA0C04A2F8064498
:103C7800BCE733F8212092B222F4804222F070028D
:103C880082F4005242F4004242F0800223F82120DC
:103C980074E0CA78022A72D00C7833F8242092B2E1
:103CA80022F4E24222F0700242F4004242F0800222
:103CB80023F82420B3F8502013FA82F291F800C0B8
:103CC80002EBCC02B1F808C04FEA5C0C4FEA4C0C8E
:103CD800A2F800C4B3F8502013FA82F291F800C099
:103CE80002EBCC02B1F80AC04FEA5C0C4FEA4C0C6C
:103CF800A2F804C44A78002A50D10C7833F824205A
:103D080012F4804F0CD033F8242092B222F4E0420F
:103D180022F0700242F4404242F0800223F824204C
:103D28000C7833F8242012F0400F0CD033F82420FC
:103D380092B222F4E04222F0700242F4004242F0D1
:103D4800C00223F8242091F800C033F82C2092B246
:103D580022F4804222F0700282F4405248F2800439
:103D6800224323F82C20097833F8212092B222F438
:103D7800E04222F04002224323F8212010BD0C78B3
:103D880033F8242092B222F4E04222F0700242F486
:103D9800014242F0800223F824208BE70C7833F8A4
:103DA800242012F4804F0CD033F8242092B222F44D
:103DB800E04222F0700242F4404242F0800223F8CE
:103DC80024200C7833F8242012F0400F0CD033F85C
:103DD800242092B222F4E04222F0700242F400421F
:103DE80042F0C00223F82420CA78012A1ED00C7899
:103DF80033F8242092B222F4E04222F0400282F00A
:103E0800200242F4004242F0800223F8242009787C
:103E180033F8212092B222F4804222F0700242F458
:103E2800004242F0800223F82120A7E70C7833F8FB
:103E3800242092B222F4E04222F0400242F40042EE
:103E480042F0800223F82420E1E70B7B002B46D1C7
:103E58004B7813B30A7830F8223013F0400F0CD0A7
:103E680030F822309BB223F4E04323F0700343F48C
:103E7800004343F0C00320F822300A7830F822309B
:103E88009BB223F4E04323F0400343F4004343F0A0
:103E9800800320F82230002070470A7830F822305A
:103EA80013F4804F0CD030F822309BB223F4E04357
:103EB80023F0700343F4404343F0800320F822309A
:103EC8000A7830F822309BB223F4804323F0700341
:103ED80043F4004343F0800320F82230DBE74B78BB
:103EE800002B4ED10A7830F8223013F4804F0CD0D2
:103EF80030F822309BB223F4E04323F0700343F4FC
:103F0800404343F0800320F822300A7830F822300A
:103F180013F0400F0CD030F822309BB223F4E0436A
:103F280023F0700343F4004343F0C00320F8223029
:103F38000A7830F822309BB223F4E04323F0700370
:103F480043F4004343F0C00320F822300A7830F8E5
:103F580022309BB223F4804323F0700348F2800C94
:103F680043EA0C0320F822300A7830F822309BB25A
:103F780023F4E04323F0400343EA0C0320F8223003
:103F880089E70A7830F8223013F4804F0CD030F8E3
:103F980022309BB223F4E04323F0700343F4404300
:103FA80043F0800320F822300A7830F8223013F0EA
:103FB800400F0CD030F822309BB223F4E04323F0BA
:103FC800700343F4004343F0C00320F822300A781A
:103FD80030F822309BB223F4E04323F0700343F41B
:103FE800404343F0800320F822300A7830F822302A
:103FF8009BB223F4E04323F0400348F2800C43EAE9
:104008000C0320F822300A7830F822309BB223F4CF
:10401800804323F0700343EA0C0320F822303AE788
:104028004B788BB10A7830F822309BB223F4E04306
:1040380023F0400383F0100343F4004343F080036C
:1040480020F82230002070470A7830F822309BB2DE
:1040580023F4804323F0700383F4805343F4004334
:1040680043F0800320F82230ECE70B7B002B4BD188
:104078004B7833B30A7830F8223013F0400F0CD065
:1040880030F822309BB223F4E04323F0700343F46A
:10409800004343F0C00320F82230CB78012B33D003
:1040A8000A7830F822309BB223F4E04323F040032F
:1040B80083F0200343F4004343F0800320F82230C8
:1040C80022E00A7830F8223013F4804F0CD030F810
:1040D80022309BB223F4E04323F0700343F44043BF
:1040E80043F0800320F822300A7830F822309BB25F
:1040F80023F4804323F0700383F4405343F40043D4
:1041080043F0800320F822300020704711B9802343
:10411800A0F84C3000207047B0F858306FEA43439D
:104128006FEA53439BB2A0F8583000207047B0F8AC
:10413800440080B2704701335B08024402F5806294
:1041480008E0087891F801C040EA0C2022F8020B38
:104158000231013B002BF4D1704770B505460C467F
:104168004A78012A3BD00B7B002B40F0A6828B6952
:104178000A69934240F284829B1A8B61B5F85030E9
:1041880015FA83F3217803EBC103B3F80614C1F3DE
:104198000901A3F806143E2A40F27682510912F06A
:1041A8001F0F00D10139B3F8062492B2890289B2EF
:1041B8000A4342F40042A3F80624227835F8223054
:1041C8009BB223F4804323F0700383F4405343F4F9
:1041D800004343F0800325F82230002070BD8E692B
:1041E80009698E4200D90E46237B73B3E378022B0C
:1041F8004DD0236A9B1B2362237835F8231011F0D6
:10420800400F00F0F581002A40F0E281B5F8502017
:1042180015FA82F202EBC303B3F80624C2F30902CB
:10422800A3F806243E2E40F2BA81710916F01F0F3A
:1042380000D10139B3F8062492B2890289B20A433F
:1042480042F40042A3F80624CBE1B6B23346E28832
:1042580061692846FFF76FFFB5F8503015FA83F308
:10426800227803EBC203A3F80264227835F82230DF
:104278009BB223F4E04323F0400383F0300343F47C
:10428800004343F0800325F822300020A6E7236A84
:10429800994280F06681227835F822309BB223F467
:1042A800E04323F0700343F4014343F0800325F80F
:1042B8002230236A9B1B2362237835F8232012F0CF
:1042C800400F00F0A7806278B2BBB5F8502015FA0D
:1042D80082F202EBC303B3F80624C2F30902A3F87F
:1042E80006243E2E0FD9710916F01F0F00D101398F
:1042F800B3F8062492B2890289B20A4342F4004212
:10430800A3F806241AE04EB9B3F806246FEA42422D
:104318006FEA524292B2A3F806240FE0720816F030
:10432800010F00D00132B3F8061489B2920292B29A
:104338000A43A3F8062401E0012A30D0B3B2628907
:1043480061692846FFF7F7FE636933446361236AAE
:10435800226993422DD99B1B23626378002B45D198
:10436800B5F8503015FA83F3227803EBC203B3F89B
:104378000224C2F30902A3F802243E2E1DD97109B2
:1043880016F01F0F00D10139B3F8022492B2890246
:1043980089B20A4342F40042A3F8022428E0B5F89F
:1043A800502015FA82F202EBC303B2B2A3F8062436
:1043B800C4E7002222621E46CFE74EB9B3F80224B2
:1043C8006FEA42426FEA524292B2A3F802240FE027
:1043D800720816F0010F00D00132B3F8021489B246
:1043E800920292B20A43A3F8022401E0012B06D0FC
:1043F800B3B2228961692846FFF79DFE35E7B5F813
:10440800503015FA83F3227803EBC203B2B2A3F853
:104418000224EDE76278B2BBB5F8502015FA82F2B3
:1044280002EBC303B3F80224C2F30902A3F802247F
:104438003E2E0FD9710916F01F0F00D10139B3F8BC
:10444800022492B2890289B20A4342F40042A3F8D4
:1044580002241AE04EB9B3F802246FEA42426FEA26
:10446800524292B2A3F802240FE0720816F0010F2C
:1044780000D00132B3F8021489B2920292B20A4310
:10448800A3F8022401E0012A30D0B3B2228961697D
:104498002846FFF750FE636933446361236A226943
:1044A80093422DD99B1B23626378002B45D1B5F825
:1044B800503015FA83F3227803EBC203B3F80624CD
:1044C800C2F30902A3F806243E2E1DD9710916F07D
:1044D8001F0F00D10139B3F8062492B2890289B2BC
:1044E8000A4342F40042A3F8062428E0B5F8502015
:1044F80015FA82F202EBC303B2B2A3F80224C4E7AE
:10450800002222621E46CFE74EB9B3F806246FEAAE
:1045180042426FEA524292B2A3F806240FE07208B0
:1045280016F0010F00D00132B3F8061489B29202D6
:1045380092B20A43A3F8062401E0012B06D0B3B2D5
:10454800628961692846FFF7F6FD8EE6B5F85030B6
:1045580015FA83F3227803EBC203B2B2A3F8062458
:10456800EDE7217835F8212092B222F4E24222F0D8
:10457800700242F4004242F0800225F82120B5F88A
:10458800502015FA82F2217802EBC1029BB2A2F800
:104598000234228961692846FFF7CDFD65E64EB9E8
:1045A800B3F806246FEA42426FEA524292B2A3F885
:1045B800062416E0720816F0010F00D00132B3F895
:1045C800061489B2920292B20A43A3F8062408E0BC
:1045D800B5F8502015FA82F202EBC303B2B2A3F881
:1045E8000624B3B2628961692846FFF7A4FD3CE658
:1045F800B2BBB5F8502015FA82F202EBC303B3F848
:104608000224C2F30902A3F802243E2E0FD971092D
:1046180016F01F0F00D10139B3F8022492B28902B3
:1046280089B20A4342F40042A3F8022421E04EB9B9
:10463800B3F802246FEA42426FEA524292B2A3F8F8
:10464800022416E0720816F0010F00D00132B3F808
:10465800021489B2920292B20A43A3F8022408E033
:10466800B5F8502015FA82F202EBC303B2B2A3F8F0
:104678000224B3B2228961692846FFF75CFDF4E59C
:1046880000228A611A4679E54AB9B3F806246FEA26
:1046980042426FEA524292B2A3F806248DE55108CD
:1046A80012F0010F00D00131B3F8062492B289024A
:1046B80089B20A43A3F806247FE5CB78022B4DD0B4
:1046C800012B40F02F8189692369994240F2E680E5
:1046D800C91AA161F2B9B5F8502015FA82F2217809
:1046E80002EBC102B2F80214C1F30901A2F80214E4
:1046F8003E2B40F2D780580913F01F0F00D1013824
:10470800B2F8021489B2800280B2014341F4004138
:10471800A2F802146278002A40F0F680B5F850201A
:1047280015FA82F2217802EBC102B2F80614C1F33D
:104738000901A2F806143E2B40F2CD80590913F066
:104748001F0F00D10139B2F806349BB2890289B231
:104758000B4343F40043A2F806342EE5F2B9B0F84F
:10476800503010FA83F30A7803EBC203B3F802243B
:10477800C2F30902A3F802240A693E2A31D9510971
:1047880012F01F0F00D10139B3F8022492B2890246
:1047980089B20A4342F40042A3F802246378002B4A
:1047A80051D1B5F8503015FA83F3227803EBC203E0
:1047B800B3F80624C2F30902A3F8062422693E2AA4
:1047C80028D9510912F01F0F00D10139B3F8062476
:1047D80092B2890289B20A4342F40042A3F806243D
:1047E80033E04AB9B3F802246FEA42426FEA524210
:1047F80092B2A3F80224D1E7510812F0010F00D0B9
:104808000131B3F8022490B28A0292B20243A3F8AB
:104818000224C3E74AB9B3F806246FEA42426FEAB2
:10482800524292B2A3F806240FE0510812F0010F89
:1048380000D00131B3F8062490B28A0292B2024342
:10484800A3F8062401E0012B1DD0E369002B3FF4F7
:10485800B4AC227835F8221044F2400303EA010090
:104868008B4302D000287FF4A8AC35F822309BB2E5
:1048780023F4E04323F0700343F4004343F0C00300
:1048880025F8223099E4B5F8503015FA83F32278E8
:1048980003EBC203228AA3F80624D6E70023A36108
:1048A8000B4617E74BB9B2F802146FEA41416FEAB9
:1048B800514189B2A2F802142CE7590813F0010FEC
:1048C80000D00131B2F8020480B2890289B20143F2
:1048D800A2F802141EE74BB9B2F806346FEA434354
:1048E8006FEA53439BB2A2F8063466E4590813F002
:1048F800010F00D00131B2F8063498B28B029BB296
:104908000343A2F8063458E4012A7FF456ACB5F8FC
:10491800502015FA82F2217802EBC1029BB2A2F86C
:1049280006344AE4012059E410B45C08024402F554
:10493800806207E032F8020B0870C0F30720487065
:104948000231013C002CF5D113F0010F01D013887E
:104958000B7010BC704710B5D0F8BC4284B1D0F8C9
:10496800C0327BB194F80002FF280DD09B6894F800
:10497800012221469847FF2384F80032002010BD09
:104988000320FCE70020FAE70020F8E74323038030
:1049980000487047500000204323038000487047B8
:1049A8009400002043230380004870470C00002037
:1049B8000A230380004870471001002038B5D0F85A
:1049C800BC5275B1044601F0D4F8C5F80C02D4F80D
:1049D800C032DB6805F50371D5F80402984700205A
:1049E80038BD0320FCE710B5D0F8C442D0F8BC327B
:1049F80053B301EB810200EB820292694AB101EBE9
:104A0800810C04EBCC04246AB2FBF4FC04FB1C22EA
:104A180072B10022C3F81422D0F8C0221469ACB1D4
:104A28000A4603F50471D3F80802A047002010BD18
:104A380001EB810300EB830300249C61234622469B
:104A480001F087F82046F2E70320F0E70020EEE7C0
:104A5800F0B583B0D0F8BC6200238DF80730ADF80C
:104A68000430002E6CD007460C460B7813F0600516
:104A78002AD0202D5ED1CA88F2B113F0800F0FD052
:104A8800D0F8C0329B68314660789847E288072A98
:104A980028BF07223146384600F0ECFD00254CE0DF
:104AA8004B7886F800328B7986F80132CA8831460D
:104AB80000F0F5FD002540E0D0F8C0329B680022E8
:104AC80048789847002538E04E780B2E2ED8DFE836
:104AD80006F006342D2D2D2D2D2D2D2D152490F875
:104AE8009C32DBB2032B03D000F08AFA032524E0C2
:104AF800022201A900F0BEFD35461EE090F89C3266
:104B0800DBB2032B03D000F07BFA032515E001226A
:104B18000DF1070100F0AEFD0FE090F89C32DBB21A
:104B2800032B0AD000F06CFA032506E000F068FABF
:104B3800032502E000F064FA0325284603B0F0BD1F
:104B48000325FAE738B50446812100F0CCFF00259B
:104B580025870121204600F0C6FFA4F8785182215C
:104B6800204600F0C0FFA4F84C50A4F84E50D4F8EA
:104B7800BC324BB1D4F8C0325B689847D4F8BC0259
:104B880001F024F8C4F8BC52002038BD70B50446C2
:104B98004FF4077001F016F8B8B30646C4F8BC0223
:104BA800237CBBBB4FF4007302228121204600F016
:104BB8008FFF012525874FF40073022229462046DE
:104BC80000F086FFA4F878511023A4F84E3008238B
:104BD80003228221204600F07BFF0123A4F84C30F9
:104BE800D4F8C0321B6898470023C6F81432C6F8B8
:104BF8001832257C15BB4FF40073D6F80422012126
:104C0800204600F0AEFF284670BD0023C4F8BC3231
:104C18000225F8E7402302228121204600F058FFB0
:104C280001252587402302222946204600F050FF0F
:104C3800A4F878511023A4F84E30C8E74023D6F8DA
:104C480004220121204600F08CFF0025DBE719B182
:104C5800C0F8C0120020704703207047D0F8BC325B
:104C68002BB1C3F80812C3F81022002070470320A4
:104C78007047D0F8BC321BB1C3F80412002070474B
:104C880003207047D0F8BC2292B108B5D2F814328C
:104C98000BB1012008BD0123C2F81432D2F810323A
:104CA800C362D2F80822812100F053FF0020F1E707
:104CB8000320704710B5D0F8BC2292B1047C44B9E7
:104CC8004FF40073D2F80422012100F04AFF204675
:104CD80010BD4023D2F80422012100F042FF002435
:104CE800F5E70324F3E798B108B503460020C3F8B5
:104CF800B802C3F8C002C3F8CC0209B1C3F8B412B1
:104D0800012183F89C121A70184600F095FE08BD20
:104D18000320704710B582B00023ADF8063061B1AA
:104D28000446C0F8B812CB6A4BB10DF1060098479B
:104D3800C4F8CC02002002B010BD0320FBE700201D
:104D4800F9E708B500F0BCFE08BD08B5D0F8B832E0
:104D580013B11B68984708BD0320FCE708B5D0F8D5
:104D6800B8320BB15B689847002008BD38B50446D7
:104D780000F2AA25284600F02FF90123C4F894323E
:104D8800B4F8B032C4F8983294F8AA1201F01F03AC
:104D9800012B07D0022B0AD073B92946204600F010
:104DA800EAFA38BD2946204600F01DFBF9E72946F6
:104DB800204600F04CFBF4E701F08001204600F0AB
:104DC8009AFEEEE738B504460D4641BB1346D0F8C7
:104DD8009422032A01D0084638BDD0F85C11D0F8D7
:104DE8006021914209D890F89C32DBB2032B0FD096
:104DF800204600F06BFC2846EEE7891AC0F85C11E3
:104E08008A4228BF0A46194600F058FC2846E3E7BC
:104E1800D0F8B8321B69002BEAD09847E8E790F839
:104E28009C32DBB2032B01D00020D5E7D0F8B83292
:104E38009B690BB19847CFE70020CDE738B504460A
:104E48000D4600294AD11346D0F89422022A05D0EB
:104E580094F8A032012B3CD0284638BDC269016ABB
:104E68008A420ED88A4218D094F89C32DBB2032BBF
:104E780027D08021204600F03EFE204600F031FC7D
:104E8800E6E7521AC261194600F001FC00231A46EF
:104E98001946204600F065FEDAE783699942E3D8AF
:104EA800D0F898229342DFD20022114600F0EFFB9F
:104EB8000021C4F898120B460A46204600F051FE1D
:104EC800C6E7D4F8B832DB68002BD2D02046984722
:104ED800CFE7002384F8A0322846BEE790F89C323A
:104EE800DBB2032B01D00020B7E7D0F8B8325B69FA
:104EF8000BB19847B1E70020AFE7012380F89C3257
:104F08000023C0F894324360C0F8A432D0F8B83215
:104F1800F3B170B50446D0F8BC221AB15B680BB186
:104F280000219847402300221146204600F0D0FD7A
:104F38000126A4F864614025C4F860512B4600227C
:104F48008021204600F0C4FDA6842562002070BDA3
:104F58000320704701740020704790F89C32DBB240
:104F680080F89D32042380F89C320020704790F826
:104F78009C32DBB2042B01D00020704790F89D32A0
:104F8800DBB280F89C32F7E7D0F8B82262B108B5F6
:104F980090F89C32DBB2032B01D0002008BDD36906
:104FA80023B198470020F9E7032070470020F5E770
:104FB8000346002002E00130C0B201331A78002A0B
:104FC800F9D1704708B54B88012B00D008BDC0F84F
:104FD800A43200F07BFBF9E70B7803704B78437041
:104FE8008B78CA7843EA022343800B794A7943EAEB
:104FF800022383808B79CA7943EA0223C3807047EE
:1050080010B50446802100F076FD0021204600F00E
:1050180072FD10BD30B583B004460D460023ADF8CF
:1050280006304A88130A013B0E2B00F2BC80DFE8E9
:1050380003F0153044BABA9EABBABABABABABABA19
:105048000800D0F8B432DB6923B10DF10601007C09
:1050580098470AE02946FFF7D3FF18E0D0F8B432A2
:105068001B680DF10601007C9847EA88002A00F0C9
:10507800A380BDF80630002B00F099809A4228BF23
:105088001A46ADF806200146204600F0F3FA03B0B0
:1050980030BD037C43B9D0F8B8329B6A0DF10600E5
:1050A800984702234370E0E7D0F8B832DB6A0DF185
:1050B8000600984702234370D7E7D2B2052A52D890
:1050C800DFE802F003101D2A3744D0F8B4325B68D9
:1050D80023B10DF10601007C9847C6E72946FFF782
:1050E8008FFFD4E7D0F8B4329B6823B10DF10601E5
:1050F800007C9847B9E72946FFF782FFC7E7D0F851
:10510800B432DB6823B10DF10601007C9847ACE7A7
:105118002946FFF775FFBAE7D0F8B4321B6923B107
:105128000DF10601007C98479FE72946FFF768FFC5
:10513800ADE7D0F8B4325B6923B10DF10601007C0C
:10514800984792E72946FFF75BFFA0E7D0F8B4320B
:105158009B6923B10DF10601007C984785E7294634
:10516800FFF74EFF93E72946FFF74AFF8FE7037CD7
:1051780033B9D0F8B8325B6B0DF10600984774E785
:105188002946FFF73DFF82E7037C43B9D0F8B832E0
:105198001B6B0DF1060098470723437065E7294606
:1051A800FFF72EFF73E72946FFF72AFF6FE7294627
:1051B8002046FFF725FF6AE7204600F087FA66E7F2
:1051C80038B504468B88FBB9CB88EBB94B887F2B65
:1051D8001AD803F07F0590F89C32DBB2032B0CD071
:1051E80080F89E52294600F0ACFC204600F06EFA8A
:1051F80035B1022384F89C3209E0FFF701FF06E08D
:10520800012384F89C3202E02046FFF7F9FE38BDFE
:1052180070B504460E468D782E4B1D70012D10D8A2
:1052280090F89C32DBB2022B0FD0032B23D0FFF770
:10523800E7FE284B19782046FFF790FD03252846FE
:1052480070BDFFF7DDFE0325F9E78DB145602946FE
:10525800FFF77BFD054620B131462046FFF7D0FE1B
:10526800EDE7204600F032FA032384F89C32E6E7A3
:1052780000F02CFAE3E7CDB141688D4225D0C9B2E0
:10528800FFF76CFD134B197861602046FFF75DFD51
:105298000546B0B131462046FFF7B2FE21792046D7
:1052A800FFF75CFD022384F89C32C8E7022380F8EC
:1052B8009C3245602946FFF751FD204600F006FA6A
:1052C800BDE7204600F002FAB9E700F0FFF9002533
:1052D800B5E700BF4C06002008B5CB88012B0BD1E1
:1052E80090F89C32DBB2022B09D9032B11D1012291
:1052F800011D00F0BFF901E0FFF782FE08BD5BB2B7
:105308003BB10146002341F8083F012200F0B2F901
:10531800F4E7FFF775FEF1E708B590F89C32013B1A
:10532800022B12D8CB88022B0CD10123C360D0F8F2
:10533800A4320BB10323C360022200F10C0100F078
:1053480099F908BDFFF75CFEFBE7FFF759FEF8E7A0
:1053580008B590F89C32013B022B09D84B88012BE9
:1053680000D008BD0023C0F8A43200F0AFF9F8E778
:10537800FFF746FEF5E738B50C7804F06004202CFA
:1053880006D0402C04D054B1FFF73AFE002404E0C4
:10539800D0F8B8329B6898470446204638BD4D7807
:1053A800092D1DD8DFE805F012191C161C08051C6C
:1053B8000F0BFFF72FFEF0E7FFF702FFEDE7FFF710
:1053C80027FF0446E9E7FFF787FFE6E7FFF7A4FFB3
:1053D8002C46E2E7FFF7F6FDDFE7FFF7B9FFDCE76A
:1053E800FFF70EFED9E770B505460C460B7803F0BB
:1053F8006003202B07D0402B05D023B1FFF700FE18
:105408000026304670BD95F89C32013B022B18D817
:105418002379012B0FD8D5F8B8329B682146284646
:1054280098470646E388002BEBD10028E9D12846A7
:1054380000F04CF9E5E721462846FFF7E1FD002694
:10544800DFE721462846FFF7DBFD0026D9E7F8B558
:1054580006460D468B880C7804F06004202C08D092
:10546800D9B2402C05D06CB12946FFF7C9FD0024FC
:1054780006E0D6F8B8329B68294630469847044675
:105488002046F8BD6F78012F2FD0032F05D0002FAD
:1054980059D02946FFF7B4FDF2E790F89C32DBB209
:1054A800022B05D0032B12D02946FFF7A9FDE7E709
:1054B80009B1802904D129463046FFF7A1FDDFE76D
:1054C80000F019FB8021304600F015FBD8E76B8807
:1054D80023B919B1802901D0EB881BB1304600F0FF
:1054E800F5F8CDE700F007FBF8E790F89C32DBB25F
:1054F800022B05D0032B12D02946FFF781FDBFE709
:1055080009B1802904D129463046FFF779FDB7E76C
:1055180000F0F1FA8021304600F0EDFAB0E76B8830
:10552800002BADD111F07F0F0AD1304600F0CEF834
:10553800D6F8B8329B6829463046984704469FE714
:1055480000F0E1FAF1E790F89C22D2B2022A06D0E4
:10555800032A29D02946FFF753FD3C4690E709B1B5
:10556800802913D113F0800F15D101F07F0101EBD1
:105578008101890001F5A8713144043100230B60D1
:105588000222304600F076F83C4679E72946FFF7D4
:1055980037FD3C4674E701F07F0101EB810189008A
:1055A800103131440431E9E75BB2002B1FDB01F015
:1055B8000F0202EB820200EB8202B2F8642122B3EE
:1055C800002B27DB01F07F0303EB83039C0004F52A
:1055D800A8743444043409B1802924D100232360F9
:1055E80002222146304600F045F83C4648E701F0E3
:1055F8000F0202EB820200EB8202928C002ADFD1BA
:105608002946FFF7FDFC3C463AE72946FFF7F8FC38
:105618003C4635E701F07F0303EB83039C0010341D
:1056280034440434D7E7304600F075FA10B101234A
:105638002360D5E700232360D2E7D0B170B50D46CB
:1056480016460446FFF7B4FC431C5B009BB233804C
:105658002B7003236B70022307E0EA5401345A1CB1
:10566800D2B20021A9540233DBB22278002AF4D145
:1056780070BD704708B513460222C0F894228361B2
:10568800C3610A46002100F064FA002008BD08B58D
:1056980013460A46002100F05CFA002008BD08B550
:1056A80013460322C0F89422C0F85831C0F85C3180
:1056B8000A46002100F055FA002008BD08B5134637
:1056C8000A46002100F04DFA002008BD08B5042262
:1056D800C0F8942200231A46194600F03AFA00202E
:1056E80008BD08B50522C0F8942200231A461946B9
:1056F80000F037FA002008BD08B500220F4910480D
:10570800FFF7F1FA70B90F490D48FFF703FB60B9CD
:105718000D490B48FFF79BFA50B90948FFF711FBF1
:1057280048B908BDFAF780FEEDE7FAF77DFEEFE726
:10573800FAF77AFEF1E7FAF777FEF2E7640100205C
:1057480050060020D80000201C01002000207047CF
:10575800002070470020704738B504460988FAF7DA
:105768002DFE054D21462846FFF783FA2846FFF708
:10577800A1FA002038BD00BF5006002010B5064C25
:10578800002206492046FFF769FA05492046FFF737
:1057980070FA002010BD00BF50060020200900202C
:1057A80020110020094BD3F8BC32D3F814320BB1C6
:1057B8000120704710B5054C0A4601462046FFF700
:1057C8004DFA2046FFF75EFA10BD00BF50060020D4
:1057D80012230B80004870475001002004230B80DF
:1057E800004870474C010020002393421ED200B5A8
:1057F80010E00CF1370C01F813C000014FEA430C1C
:105808000CF1010C4FF0000E01F80CE00133DBB293
:10581800934209D24FEA107CB0F1204FE9D20CF143
:10582800300C01F813C0E8E75DF804FB704700008E
:1058380038B50B4BD3F89005D3F89445D3F8983581
:10584800C01800D138BD074D08222946FFF7CCFF04
:10585800042205F110012046FFF7C6FFF2E700BF5A
:105868000070FF1F3201002008B51A230B80FFF7D4
:10587800DFFF014808BD00BF3001002008B50A4617
:1058880028B905490548FFF7D8FE034808BD02496D
:105898000248FFF7D2FEF8E720190020B0600008A0
:1058A80010B50A46034C21460348FFF7C6FE2046BA
:1058B80010BD00BF20190020C860000808B50A46BE
:1058C80028B905490548FFF7B8FE034808BD02494D
:1058D8000248FFF7B2FEF8E720190020DC60000854
:1058E80008B50A4628B905490548FFF7A6FE034842
:1058F80008BD02490248FFF7A0FEF8E7201900207A
:10590800E8600008032805D8DFE800F00504020570
:10591800012070470320704708B5FAF7B7FD08BDA6
:1059280010B596B004465022002102A800F0AEFA45
:105938002268114B9A4201D016B010BD4FF40053A3
:10594800029302A8FCF76AFD90B90C4B9A6D42F4D9
:1059580000029A659B6D03F400030193019B0022EA
:1059680011461420FAF72EFF1420FAF73BFFE3E75D
:10597800FAF75AFDE9E700BF005C0040001002405A
:1059880008B500F52671D0F8D802FFF7EFF908BD81
:1059980008B501EB810300EBC303D3F86421D0F809
:1059A800D802FFF70FFA08BD08B501EB810300EB39
:1059B800C3035A6AD0F8D802FFF740FA08BD08B501
:1059C800D0F8D802FFF7E0FA08BD10B504464379CD
:1059D800022B09D10121D4F8D802FFF7BBFAD4F879
:1059E800D802FFF78AFA10BDFAF71EFDF2E70000A9
:1059F80010B50446D0F8D802FFF7AFFA637A23B19E
:105A0800024A136943F00603136110BD00ED00E07C
:105A180010B50446437A23B9D4F8D802FFF7A7FA99
:105A280010BD044A136923F006031361FFF774FFDE
:105A3800F2E700BF00ED00E010B504461E48C0F8CC
:105A4800D842C4F8C4021D4B036008230371022323
:105A58004371C3710023037243728372C372FBF7ED
:105A6800D7F830BB182300221146D4F8C402FCF73B
:105A78000CF8582300228021D4F8C402FCF705F85A
:105A8800C02300228121D4F8C402FBF7FEFF4FF4A3
:105A9800887300220121D4F8C402FBF7F6FF4FF403
:105AA800807300228221D4F8C402FBF7EEFF0020A5
:105AB80010BDFAF7B9FCD5E7401D0020005C004096
:105AC80008B5D0F8C402FBF7FEF8FFF71BFF08BDC6
